:100000000C94F9050C943D060C943D060C943D06A9
:100010000C943D060C943D060C943D060C943D0654
:100020000C943D060C943D060C94D30D0C94A50E37
:100030000C94291E0C943D060C943D060C943D0630
:100040000C943D060C943D060C943D060C943D0624
:100050000C943D060C949C1E0C943D060C943D069D
:100060000C943D060C943D060C943D060C943D0604
:100070000C943D060C943D060C943D060C943D06F4
:100080000C943D060C943D060C943D060C943D06E4
:100090000C943D060C943D060C943D060C943D06D4
:1000A0000C943D060C943D060C943D060A0F2C0F53
:1000B00017102C0F17106E0F910F1710E60FF90F76
:1000C00005140514331433148F14CB14CE16CE1626
:1000D000E314CE16DA15DA15A816CE16CE16BC160F
:1000E000F1A156555453291E1F20212223242526D1
:1000F000272D2E2AA9572425262B141A0815171C3C
:10010000180C12132F3031AA0021222339041607AC
:10011000090A0B0D0E0F33340028A8281E1F20E1FA
:10012000001D1B0619051110363738E5523C0063D7
:100130006200E0E3E20000002C000000C0E6505145
:100140004F01010101353A3B3C3D3E3F40414243B6
:10015000444501010101520101C2015201010101A5
:1001600001B4014A49C4010050514F010150514F9F
:100170000146474801C34D00010101010101010091
:100180004C01B7A8A9AA014B4E4C01010100010185
:10019000000101E2000000C10000000101010101B5
:1001A0000A002530325800626F756E6365213A206F
:1001B000004B6579626F6172642073746172742E92
:1001C0000A0055534220636F6E66696775726564F5
:1001D0002E0A000D0A696E69740A005B445D005BBB
:1001E000435D004E0341006C007000730020004B23
:1001F000006500790062006F0061007200640020F9
:1002000000770069007400680020004C00650066FB
:100210000074002000480061006E00640065006406
:100220000020004E0075006D002000500061006449
:100230000000002A034A006F006E0061007400682D
:100240000061006E002000570065007300740065B7
:100250000072006600690065006C00640000000424
:1002600003090409027400040100A032090400001B
:1002700001030101000921110100012240000705CD
:10028000810308000A090401000103010200092199
:1002900011010001224D000705820308000A09042C
:1002A00002000103000000092111010001223600B3
:1002B0000705830308000A09040300020300000085
:1002C00009211101000122220007058403200001F9
:1002D000070504032000011201100100000008EDD1
:1002E000FE60600100010200010631FF0974A101F6
:1002F0000975150026FF00952075088102097615FD
:100300000026FF00952075089102C005010980A113
:1003100001850216810026B7001A81002AB70075F0
:100320001095018100C0050C0901A101850316018A
:1003300000269C021A01002A9C027510950181007A
:10034000C005010902A1010901A10005091901293E
:10035000051500250195057501810295017503813B
:10036000010501093009311581257F950275088144
:100370000609381581257F950175088106050C0A47
:1003800038021581257F950175088106C0C00501D9
:100390000906A101050719E029E7150025019508BF
:1003A000750181029501750881010508190129056A
:1003B00095057501910295017503910105071900D5
:1003C00029FF150026FF00950675088100C0636FA0
:1003D0006E73756D65723A20253034580A00737952
:1003E0007374656D3A20253034580A000A002530B0
:1003F000325820006B6579626F6172643A20004C5C
:1004000045443A20253032580A00253032583A20E7
:10041000253033326225730A00722F632030313267
:10042000333435363738394142434445463031322A
:10043000333435363738394142434445460A00643F
:100440006F6E652E0A00626F6F746D61676963205D
:100450007363616E3A202E2E2E2000290A00257526
:10046000002F002575005D2800256400200025640C
:1004700000200025640020002564007C0025303227
:1004800058006D6F7573656B6579205B62746E7C67
:10049000782079207620685D287265702F61636C02
:1004A000293A205B006D6B5F776865656C5F7469E6
:1004B0006D655F746F5F6D6178203D2025640A0073
:1004C0006D6B5F776865656C5F6D61785F73706594
:1004D0006564203D2025640A006D6B5F74696D655D
:1004E0005F746F5F6D6178203D2025640A006D6B3D
:1004F0005F6D61785F7370656564203D2025640AD7
:10050000006D6B5F696E74657276616C203D2025AD
:10051000640A006D6B5F64656C6179203D20256421
:100520000A006D6B5F776865656C5F74696D655F08
:10053000746F5F6D6178203D2025640A006D6B5FEC
:10054000776865656C5F6D61785F73706565642061
:100550003D2025640A006D6B5F74696D655F746F83
:100560005F6D6178203D2025640A006D6B5F6D61D1
:10057000785F7370656564203D2025640A006D6BAB
:100580005F696E74657276616C203D2025640A0097
:100590006D6B5F64656C6179203D2025640A000AFB
:1005A00000257500363A20776865656C5F74696D63
:1005B000655F746F5F6D61783A20000A00257500F1
:1005C000353A20776865656C5F6D61785F7370653B
:1005D00065643A20000A00257500343A2074696D7C
:1005E000655F746F5F6D61783A20000A00257500C1
:1005F000333A206D61785F73706565643A20000A54
:1006000000257500323A20696E74657276616C2837
:100610006D73293A20000A00257500313A2064657F
:100620006C6179282A31306D73293A20000A092D2E
:100630002056616C756573202D0A004D3E004D25D6
:10064000643E20003F007365742064656661756CCC
:10065000740A00433E200077686572652064656C0B
:1006600074613A20637572736F723D25642C207734
:100670006865656C3D25640A53656520687474700F
:100680003A2F2F656E2E77696B6970656469612EEC
:100690006F72672F77696B692F4D6F7573655F6B2D
:1006A0006579730A000A092D204D6F7573656B65B6
:1006B00079202D0A4553432F713A09717569740ADF
:1006C000313A0964656C6179282A31306D73290AE1
:1006D000323A09696E74657276616C286D73290A05
:1006E000333A096D61785F73706565640A343A095D
:1006F00074696D655F746F5F6D61780A353A09776B
:100700006865656C5F6D61785F73706565640A36F6
:100710003A09776865656C5F74696D655F746F5FD2
:100720006D61780A0A703A097072696E7420766198
:100730006C7565730A643A09736574206465666153
:10074000756C74730A75703A092B310A646F776E91
:100750003A092D310A706775703A092B31300A70E9
:1007600067646F776E3A092D31300A0A73706565D8
:1007700064203D2064656C7461202A206D61785F7F
:100780007370656564202A20287265706561742025
:100790002F2074696D655F746F5F6D6178290A0041
:1007A0003F004D3E2000433E20004C25640A000AD5
:1007B000092D20436F6E736F6C65202D0A455343DE
:1007C0002F713A09717569740A6D3A096D6F757305
:1007D000656B65790A000A092D204D616769632000
:1007E0002D0A643A0964656275670A783A09646596
:1007F000627567206D61747269780A6B3A09646585
:10080000627567206B6579626F6172640A6D3A097F
:100810006465627567206D6F7573650A763A09764F
:10082000657273696F6E0A733A09737461747573D4
:100830000A633A09636F6E736F6C65206D6F646550
:100840000A302D343A096C61796572302D342846AE
:1008500031302D4634290A506175733A09626F6F41
:10086000746C6F616465720A653A09656570726FD0
:100870006D0A000A002575002E6E6B726F3A20001B
:100880000A002575002E737761705F6261636B7378
:100890006C6173685F6261636B73706163653A205A
:1008A000000A002575002E737761705F67726176AC
:1008B000655F6573633A20000A002575002E6E6F30
:1008C0005F6775693A20000A002575002E7377610D
:1008D000705F72616C745F726775693A20000A001C
:1008E0002575002E737761705F6C616C745F6C6747
:1008F00075693A20000A002575002E636170736CDB
:100900006F636B5F746F5F636F6E74726F6C3A20AE
:10091000000A002575002E737761705F636F6E7437
:10092000726F6C5F636170736C6F636B3A20000A67
:100930000025303258006B65796D61705F636F6EB2
:100940006669672E7261773A20000A002575002ECD
:100950006D6F7573653A20000A002575002E6B6572
:1009600079626F6172643A20000A002575002E6D6D
:1009700061747269783A20000A002575002E656E50
:1009800061626C653A20000A0025303258006465C7
:100990006275675F636F6E6669672E7261773A2072
:1009A000000A0025750064656661756C745F6C6192
:1009B0007965723A20003F0074696D65725F7265F7
:1009C0006164333228293A202530346C580A006B90
:1009D0006579626F6172645F69646C653A2025585D
:1009E0000A006B6579626F6172645F70726F746F19
:1009F000636F6C3A2025580A00686F73745F6B65EB
:100A000079626F6172645F6C65647328293A20258E
:100A1000580A000A092D20537461747573202D0A39
:100A2000004743433A20342E382E31204156522D70
:100A30004C4942433A20312E382E3073766E204195
:100A400056525F415243483A20617672350A004F50
:100A50005054494F4E533A204C55464120424F4F37
:100A6000544D41474943204D4F5553454B4559201F
:100A700045585452414B455920434F4E534F4C45D6
:100A800020434F4D4D414E4420343039360A004208
:100A900055494C443A20393964303962632D6469D0
:100AA000727479202832333A31333A303520446534
:100AB000632031372032303139290A005649443A0F
:100AC00020307846454544284A6F6E617468616EEF
:100AD000205765737465726669656C642920504996
:100AE000443A2030783630363028416C7073204BD1
:100AF0006579626F6172642077697468204C6566FD
:100B0000742048616E646564204E756D2050616488
:100B100029205645523A203078303030310A00448E
:100B20004553433A20742E6D2E6B2E206B657962EF
:100B30006F617264206669726D7761726520666F9D
:100B400072204D7920437573746F6D204B65796207
:100B50006F6172640A000A092D2056657273696F0D
:100B60006E202D0A000A6D6F7573653A206F6666F8
:100B70000A000A6D6F7573653A206F6E0A000A6B82
:100B80006579626F6172643A206F66660A000A6B6B
:100B90006579626F6172643A206F6E0A000A6D6156
:100BA000747269783A206F66660A000A6D61747221
:100BB00069783A206F6E0A000A64656275673A20A8
:100BC0006F6E0A000A64656275673A206F66660A8E
:100BD000000A0A626F6F746C6F616465722E2E2E4C
:100BE0002000433E20006565636F6E6669673A0AC0
:100BF000000011241FBECFEFDAE0DEBFCDBF04B688
:100C000003FE24C08091500290915102A0915202A3
:100C1000B09153028730904BA740B04BB9F410927B
:100C2000500210925102109252021092530214BEBE
:100C300084B7877F84BF88E10FB6F8948093600003
:100C4000109260000FBEE0E0F8E3099511E0A0E02B
:100C5000B1E0E0E3F6E502C005900D92A433B107E0
:100C6000D9F722E0A4E3B1E001C01D92A035B2079C
:100C7000E1F70E94FA0A0C94162B0C940000FF93E3
:100C8000EF93E0913401F0913501309709F0099527
:100C9000EF91FF910895FC018591803011F0EFDF15
:100CA000FBCF0895FF27E0E230E247FF0CC04195FB
:100CB00097FF09C0EDE26095709580959095611D54
:100CC000711D811D911D27FF02C0219530E350E267
:100CD000AA27660F771F881F991FAA1FA41710F055
:100CE000A41B63955A95A9F7AA3008F0A95FA05DE7
:100CF000AF93F395611571058105910541F7ED32CB
:100D000011F4EF93F395F21718F43F93F395FBCF9B
:100D10008F91B5DFFA95E1F70895E991F991859101
:100D2000803021F0853219F0AADFF9CF089520E054
:100D3000E89455915532C1F3503311F468945591AC
:100D40005A3348F4505390F3220F022E220F220FF1
:100D5000200D250FF4CF0EF42195899199915336EA
:100D600019F3533729F1533559F1BC0188279927D5
:100D7000E8945C3621F489919991689455915436A0
:100D800039F446EF7EF077FF0DC08FEF9FEF0AC07A
:100D900055374AE039F0583540E121F0523642E00B
:100DA00009F00895FF93EF937DDFEF91FF91B7CFA7
:100DB000FF93EF93FC0181918030B9F360DFFBCFAB
:100DC000FF93EF9368DFF1CFDF93CF93CDB7DEB71B
:100DD0002596A3DFCF91DF9108958AB1807E8AB9ED
:100DE0008BB1807E8BB908950E94ED0680B38C7024
:100DF00080BB81B3836F81BB8AB18F758AB98BB198
:100E0000806A8BB987B18F7387B988B1806C88B9D4
:100E100084B114B885B18FEF85B96E98769AEAE4FB
:100E2000F1E0A6E3B1E011921192119211921D929C
:100E30001D921D921D9281E0EE35F807A1F70895ED
:100E4000EF92FF921F93CF93DF93C6E3D1E010E0C0
:100E5000123071F018F4113041F004C0133059F021
:100E6000143059F0509A58980AC0519A599807C0AE
:100E7000529A5A9804C0539A01C0549A5C9880EAD6
:100E80008A95F1F78CB1829586958695837091E06D
:100E9000892780FBEE24E0F8F12C86B1992787FDA5
:100EA0009095809590958827990F881F9927880F8E
:100EB000991F8E299F29369B03C020E030E002C095
:100EC00024E030E0822B932B2FB1332727FD309580
:100ED000209530952227330F221F332773E0220FEE
:100EE000331F7A95E1F7822B932B7E9B03C060E042
:100EF00070E002C060E170E0862B972B7D9B03C001
:100F000060E070E002C060E270E0862B972B7C9B73
:100F100003C040E050E002C040E450E0842B952B39
:100F2000799B03C020E030E002C020E830E0822B53
:100F3000932B789B03C020E030E002C020E031E03A
:100F4000822B932B23B1332727FD309520953095A5
:100F50002227330F221F3327322F2227330F822BD2
:100F6000932B1E9B03C020E030E002C020E034E061
:100F7000822B932B1D9B03C020E030E002C020E0B9
:100F800038E0822B932B1C9B03C040E050E002C052
:100F900040E050E1842B952B1B9B03C060E070E088
:100FA00002C060E070E2862B972B1A9B03C020E002
:100FB00030E002C020E030E4822B932BAA2797FD7B
:100FC000A095BA2F199B04C040E050E0BA0104C0BC
:100FD00040E050E860E070E0482B592B6A2B7B2BF7
:100FE000189B04C080E090E0DC0104C080E090E049
:100FF000A1E0B0E0482B592B6A2B7B2B89B19927B4
:1010000087FD9095A92FB92F80959095A095B095C3
:101010008827B7FD83959927AA27BB2731E1880F39
:10102000991FAA1FBB1F3A95D1F7482B592B6A2B42
:101030007B2B4D9B04C080E090E0DC0104C080E08D
:1010400090E0A4E0B0E0482B592B6A2B7B2B8881E1
:101050009981AA81BB8184179507A607B70769F113
:10106000488359836A837B8380910001882311F12F
:101070008091310280FF04C087EA91E00E944B0614
:101080008091310280FF0EC0809100011F928F93EA
:1010900082EA91E09F938F930E94E4060F900F9055
:1010A0000F900F908091310280FF04C080EA91E0A0
:1010B0000E944B0685E0809300010E94ED061F5FB1
:1010C0002496153009F0C4CE809100018823E1F008
:1010D000815080930001882339F08FE99FE00197C8
:1010E000F1F700C0000010C0CAE4D1E0E6E3F1E08F
:1010F00081919191A191B19189939993A993B99378
:1011000091E0EA34F907A1F781E0DF91CF911F91D7
:10111000FF90EF90089594E0899FF0011124E65B21
:10112000FE4F6081718182819381089581FF02C0A9
:101130006E9A01C06E987698089580916A0108951C
:101140009FB7F894109261019FBF9091460294302E
:1011500009F058C09091E9009F702091EC0020FFA9
:1011600002C020E801C020E0292B94E09093E90020
:101170009091EB0090FF43C09091EE0097FF3FC02D
:1011800090915E01992321F09091E80095FF37C07E
:1011900010925E0196E03091E80035FD15C0309167
:1011A0004602343061F53091EB0035FD28C0915096
:1011B00021F481E080935E0122C0EFE9FFE03197E6
:1011C000F1F700C00000E7CF8093F1008091E800C4
:1011D00085FD0AC08091E80080FFFCCF8091E80087
:1011E0008E778093E80006C08FB7F89491E09093D3
:1011F00061018FBF2F702093E90080E008952F7068
:101200002093E9008FEF0895CF93DF9300D01F92D2
:10121000CDB7DEB720914602243019F523E02983AB
:101220009B838A832093E9008FEF9091E80081509F
:1012300095FD06C095ED9A95F1F700008111F5CF67
:101240008091E80085FF0DC040E050E063E070E071
:10125000CE0101960E94C60B8091E8008E778093A4
:10126000E8000F900F900F90DF91CF910895CF93EA
:10127000DF9300D01F92CDB7DEB720914602243015
:1012800021F522E029839B838A8383E08093E90010
:101290008FEF9091E800815095FD06C095ED9A95ED
:1012A000F1F700008111F5CF8091E80085FF0DC0B6
:1012B00040E050E063E070E0CE0101960E94C60B72
:1012C0008091E8008E778093E8000F900F900F9048
:1012D000DF91CF910895209146022430F1F422E06D
:1012E0002093E9002FEF3091E800215035FD06C032
:1012F00035ED3A95F1F700002111F5CF2091E80086
:1013000025FF0BC040E050E065E070E00E94C60B96
:101310008091E8008E778093E8000895CF93DF9363
:10132000EC0180914602843039F581E08093E90038
:101330008FEF9091E800815095FD06C095ED9A954C
:10134000F1F700008111F5CF8091E80085FF14C00E
:1013500040E050E068E070E0CE010E94C60B809152
:10136000E8008E778093E80088E0FE01A2E6B1E015
:1013700001900D928A95E1F7DF91CF9108958FED5D
:1013800091E00E944B0680914502811109C00E94A4
:10139000580D0E94B50D8091E20084608093E200B8
:1013A00008958BED91E00E944B061092450208953E
:1013B000089580915F018F5F80935F0162E30E94D7
:1013C000AB2A911135C010925F0180916101882391
:1013D00079F180914602843049F58091E9008F705F
:1013E0009091EC0090FF02C090E801C090E0982B33
:1013F00084E08093E9008091EB0080FF14C080912D
:10140000EE0087FF10C08091E80085FF03C01092B6
:10141000F100F9CF8091E80080FF05C08091E800DD
:101420008E778093E8009F709093E900109261019D
:10143000089542E061EC81E00E94D20C42E061EC50
:1014400082E00E94D20C42E061EC83E00E94D20C68
:1014500042E261EC84E00C94D20C8091480283302B
:1014600009F453C030F4813071F0823009F48CC03B
:1014700008958A3009F478C08B3009F45EC0893051
:1014800009F09AC020C080914702813A09F094C0C7
:101490008091E800877F8093E80080914B029091D3
:1014A0004C02892B21F060E080E090E003C068E00E
:1014B00082E691E070E00E940F0C8091E8008B774B
:1014C0008093E800089580914702813209F074C04A
:1014D00080914B0290914C02892B09F06DC0809154
:1014E000E800877F8093E8008091E80082FD05C0D6
:1014F000809146028111F8CF5FC08091F100809306
:101500006A018091E8008B7753C080914702813A4D
:1015100009F052C080914B0290914C02892B09F046
:101520004BC08091E800877F8093E8008091E800BD
:1015300080FFFCCF80910B0136C080914702813241
:10154000D9F580914B0290914C02892BA9F580919D
:10155000E800877F8093E8000E94070D8091490290
:1015600080930B010C94EF1680914702813221F594
:101570008091E800877F8093E8000E94070D8091AA
:101580004A0280936B01089580914702813AA1F449
:101590008091E800877F8093E8008091E80080FFD9
:1015A000FCCF80916B018093F1008091E8008E77F1
:1015B0008093E8000C94070D089508950895809194
:1015C0006A018093600110926A0180E00E9496088F
:1015D0000E94DB110C94EF160C94DF0A0E94E81DA8
:1015E00080914402882329F00E940E1E81110C94E0
:1015F000B00B089584B7877F84BF88E10FB6F89455
:1016000080936000109260000FBE90E080E80FB6FB
:10161000F89480936100909361000FBE80EA98E097
:101620000E94801D83ED91E00E944B060E94DD0A1E
:101630000E94EC100E94580D0E94B50D8091E200AE
:1016400084608093E2007894809146028430E1F7D0
:1016500081ED97E00197009739F0EFE9FFE03197CE
:10166000F1F700C00000F6CF82EC91E00E944B063B
:101670000E94EE1081E091E00E942F1081EB91E03A
:101680000E944B060E94DE0A80914602853019F4C2
:101690000E94EE0AF9CF0E94F410F6CF0E94251E98
:1016A0008091600180936A0108950C944E0B292F5C
:1016B000332723303105A9F06CF42130310509F4CA
:1016C00042C02230310509F043C084E790E023E6B0
:1016D00032E042C021323105C9F02232310519F120
:1016E00037C099278130910541F08230910541F052
:1016F000892B71F5EFE5F2E005C0E3E3F2E002C00B
:10170000E3EEF1E0849190E09F0126C0643000F5A3
:10171000E62FF0E0EE0FFF1FE05EFE4F20813181EB
:1017200089E090E019C0643098F4E62FF0E0DF0122
:10173000AA0FBB1FA85EBE4F2D913C91EC5EFE4FE1
:10174000808190E009C082E190E027ED32E004C0A2
:1017500080E090E020E030E0FA01318320830895BA
:1017600080E189BD82E189BD09B400FEFDCF809191
:10177000D8008F7D8093D8008091E00082608093B4
:10178000E0008091E00081FDFCCF0895CF92DF92D0
:10179000EF92FF920F931F93CF93DF937C018B0106
:1017A000EA010E94280D811131C0209731F0888113
:1017B0009981081B190BE80EF91EC12CD12C0115BB
:1017C000110519F18091E80085FD14C08091E800B1
:1017D0008E778093E800209741F0888199818C0D65
:1017E0009D1D9983888385E011C00E94280D882360
:1017F00031F30CC0F70181917F018093F10001501A
:101800001109FFEFCF1ADF0ADACF80E0DF91CF9125
:101810001F910F91FF90EF90DF90CF90089520914E
:101820004D0230914E022617370748F061157105B9
:1018300039F42091E8002E772093E80001C0B90127
:10184000FC0120E061157105B9F180914602882301
:1018500009F440C0853009F43FC08091E80083FD61
:101860003DC08091E80082FF06C08091E80082FFC1
:1018700026C080E008958091E80080FFE3CF2091AA
:10188000F3008091F20090E0922B6115710551F008
:101890008830910538F421912093F100615071094D
:1018A0000196F3CF21E0089709F020E08091E8004D
:1018B0008E778093E800C6CF2111C7CFD6CF809115
:1018C0004602882339F0853039F08091E80083FFA3
:1018D000CCCF04C082E0089583E0089581E00895AC
:1018E00020914D0230914E022617370748F06115BE
:1018F000710539F42091E8002E772093E80001C0AB
:10190000B901FC0120E061157105C1F18091460229
:10191000882309F441C0853009F440C08091E80073
:1019200083FD3EC08091E80082FF06C08091E80000
:1019300082FF27C080E008958091E80080FFE3CF18
:101940002091F3008091F20090E0922B61157105D7
:1019500059F08830910540F424912093F10031969C
:10196000615071090196F2CF21E0089709F020E05B
:101970008091E8008E778093E800C5CF2111C6CF13
:10198000D5CF80914602882339F0853039F0809197
:10199000E80083FFCBCF04C082E0089583E0089580
:1019A00081E00895982F973058F59093E9009817A3
:1019B00039F07091EC002091ED005091F00003C0DF
:1019C000242F762F50E021FF19C03091EB003E7F8D
:1019D0003093EB003091ED003D7F3093ED0030917E
:1019E000EB0031603093EB007093EC002093ED003E
:1019F0005093F0002091EE0027FF07C09F5FD3CFE8
:101A00008F708093E90081E0089580E008958091CF
:101A1000470287FD05C08091E80080FF0EC012C01C
:101A20008091E80082FD05C0809146028111F8CFC7
:101A300008958091E8008B7708C08091460281115B
:101A4000EACF08958091E8008E778093E8000895AA
:101A50008091E4009091E50045E62091EC0020FFA4
:101A600021C02091E80020FD21C0209146022223C0
:101A700089F0253089F02091EB0025FD0FC02091E1
:101A8000E4003091E5002817390739F3415041F05F
:101A9000C901E3CF82E0089583E0089581E00895CD
:101AA00084E008952091E80022FFDFCF80E00895D0
:101AB0000E94C60D0E94CE0DE0EEF0E080818160B4
:101AC0008083E8EDF0E080818F77808319BCA7EDFB
:101AD000B0E08C918E7F8C9380818F7E808310927A
:101AE000450208950F931F93CF93DF930E94C60D75
:101AF0000E94CE0DC8EDD0E088818F7788838881E1
:101B00008068888388818F7D888319BC1092460203
:101B100010924202109244021092430200EE10E032
:101B2000F80180818B7F808388818160888342E097
:101B300060E080E00E94D20CE1EEF0E080818E7FD8
:101B40008083E2EEF0E08081816080838081886024
:101B50008083F80180818E7F808388818061888383
:101B6000DF91CF911F910F910895E8EDF0E0808112
:101B70008F7E8083E7EDF0E080818160808384E068
:101B800082BF81E0809345020C94720DE8EDF0E095
:101B900080818E7F80831092E20008951092DA0097
:101BA0001092E10008951F920F920FB60F92112428
:101BB0002F933F934F935F936F937F938F939F9355
:101BC000AF93BF93EF93FF938091E10082FF0BC02F
:101BD0008091E20082FF07C08091E1008B7F8093BB
:101BE000E1000E94D9098091DA0080FF1FC0809136
:101BF000D80080FF1BC08091DA008E7F8093DA00CE
:101C00008091D90080FF0DC080E189BD82E189BD4E
:101C100009B400FEFDCF81E0809346020E94BF0917
:101C200005C019BC109246020E94D1098091E100C2
:101C300080FF19C08091E20080FF15C08091E20012
:101C40008E7F8093E2008091E20080618093E200C9
:101C50008091D80080628093D80019BC85E0809381
:101C600046020E94EC0A8091E10084FF30C080911E
:101C7000E20084FF2CC080E189BD82E189BD09B406
:101C800000FEFDCF8091D8008F7D8093D800809199
:101C9000E1008F7E8093E1008091E2008F7E80934F
:101CA000E2008091E20081608093E2008091420234
:101CB000882311F084E007C08091E30087FF02C011
:101CC00083E001C081E0809346020E94550B809121
:101CD000E10083FF29C08091E20083FF25C080914D
:101CE000E100877F8093E10082E0809346021092BA
:101CF00042028091E1008E7F8093E1008091E200BA
:101D00008E7F8093E2008091E20080618093E20008
:101D100042E060E080E00E94D20C8091F000886098
:101D20008093F0000E94D809FF91EF91BF91AF918D
:101D30009F918F917F916F915F914F913F912F91E3
:101D40000F900FBE0F901F9018951F920F920FB615
:101D50000F9211242F933F934F935F936F937F9331
:101D60008F939F93AF93BF93CF93EF93FF93C091C4
:101D7000E900CF708091EC001092E9008091F000B2
:101D8000877F8093F00078940E94E10E1092E90022
:101D90008091F00088608093F000C093E900FF918B
:101DA000EF91CF91BF91AF919F918F917F916F9163
:101DB0005F914F913F912F910F900FBE0F901F9009
:101DC00018951F93CF93DF93CDB7DEB7AA970FB6C1
:101DD000F894DEBF0FBECDBFE7E4F2E08091F100E2
:101DE000819322E0EF34F207C9F70E942D0A809117
:101DF000E80083FF1CC12091470230914802832FE5
:101E000090E08A30910508F012C1FC01EA5AFF4FB8
:101E10000C94CB2A203881F0223809F008C1809137
:101E20004B028F708093E9008091EB0085FB88273F
:101E300080F91092E90006C080914302909144021B
:101E4000911182609091E800977F9093E8008093D1
:101E5000F1001092F100C5C0822F8D7F09F0E7C01C
:101E6000222319F0223061F0E2C0809149028130D2
:101E700009F0DDC0333009F080E08093440228C0CF
:101E800080914902811124C020914B022F7009F4E6
:101E9000CEC02093E9008091EB0080FF19C08091B3
:101EA000EB00333011F4806211C080618093EB004D
:101EB00081E090E0022E01C0880F0A94EAF7809337
:101EC000EA001092EA008091EB0088608093EB00BA
:101ED0001092E9008091E800877F86C02111A7C099
:101EE000109149021F778091E3008078812B8093C5
:101EF000E3008091E800877F8093E8000E94070D4F
:101F00008091E80080FFFCCF8091E300806880939F
:101F1000E300112311F083E001C082E080934602C8
:101F200086C02058223008F082C0809149029091EA
:101F30004A028C3D23E0920779F583E08A838AE2A6
:101F400089834FB7F894DE01139620E03EE051E21A
:101F5000E32FF0E050935700E49120FF03C0E29597
:101F6000EF703F5FEF708E2F90E0EA3010F0C79671
:101F700001C0C0968D939D932F5F243149F74FBFC9
:101F80008091E800877F8093E8006AE270E0CE01EC
:101F900001960E940F0C14C0AE014F5F5F4F60911D
:101FA0004B020E94570B009709F441C02091E800B2
:101FB000277F2093E800BC0189819A810E94700CE0
:101FC0008091E8008B778093E80031C0203879F564
:101FD0008091E800877F8093E8008091420280939F
:101FE000F1008091E8008E778093E8000E94070D51
:101FF0001EC021111CC0909149029230C0F4809102
:10200000E800877F8093E800909342020E94070DCA
:1020100080914202811104C08091E30087FF02C0D9
:1020200084E001C081E0809346020E94190A8091F9
:10203000E80083FF0AC08091E800877F8093E80072
:102040008091EB0080628093EB00AA960FB6F89423
:10205000DEBF0FBECDBFDF91CF911F91089590934A
:102060007101809370010895E0917001F091710108
:10207000309721F00190F081E02D099480E00895DF
:10208000FF920F931F93CF93DF938C01E091700128
:10209000F0917101309799F10280F381E02D09955B
:1020A0008091310282FF2BC080FF04C084EF93E057
:1020B0000E944B06E80188E0F82E0EEE13E08091B6
:1020C000310280FF0BC088811F928F931F930F9363
:1020D0000E94E4060F900F900F900F90FA942196B3
:1020E000F110EDCF8091310280FF09C08CEE93E0BA
:1020F000DF91CF911F910F91FF900C944B06DF91D0
:10210000CF911F910F91FF900895E0917001F09190
:102110007101309721F00480F581E02D0994089534
:10212000CF93DF93EC0180916E0190916F01C817FE
:10213000D90709F1D0936F01C0936E01E09170014E
:10214000F09171013097B9F00680F781E02DCE0152
:1021500009958091310282FF0EC080FF0CC0DF9391
:10216000CF938EED93E09F938F930E94E4060F90A0
:102170000F900F900F90DF91CF910895CF93DF9341
:10218000EC0180916C0190916D01C817D90709F19C
:10219000D0936D01C0936C01E0917001F0917101D9
:1021A0003097B9F00084F185E02DCE01099580913A
:1021B000310282FF0EC080FF0CC0DF93CF938EEC04
:1021C00093E09F938F930E94E4060F900F900F90DF
:1021D0000F90DF91CF9108950C94DC110E94521E54
:1021E0000E94F4060C9461202F923F924F925F92CE
:1021F0006F927F928F929F92AF92BF92CF92DF9217
:10220000EF92FF920F931F93CF93DF9300D000D0F4
:102210001F92CDB7DEB70E94200703E711E0312CF3
:10222000832D0E948B082B013C01F8018080918056
:10223000A280B38086269726A826B9268114910409
:10224000A104B10439F433940C5F1F4FF5E03F1241
:10225000E7CF4CC08091310281FD0E94DD11212C1D
:10226000C12CD12C7601C394D701C60188219921B4
:10227000AA21BB21892B8A2B8B2B79F129823A82C7
:1022800021E0D701C60184219521A621B721892B00
:102290008A2B8B2B09F420E02B830E945B1E81602C
:1022A000782F9D838C8349815A816B818D810E9417
:1022B000151249815A816B817C818D810E94D41DC8
:1022C000F80180819181A281B3818C259D25AE2565
:1022D000BF2580839183A283B3832394CC0CDD1C20
:1022E000EE1CFF1CF3E12F12BFCFADCF8FEF898320
:1022F0008A831B820E945B1E8160782F9D838C8362
:1023000049815A816B818D810E9415120E94D31DD3
:102310000E94E123109172010E943410181789F174
:102320000E943410809372019091310292FF0EC08E
:1023300090FF0CC01F928F938FEF93E09F938F932A
:102340000E94E4060F900F900F900F908091720101
:102350000F900F900F900F900F90DF91CF911F91E2
:102360000F91FF90EF90DF90CF90BF90AF909F9034
:102370008F907F906F905F904F903F902F900C9434
:10238000E51D0F900F900F900F900F90DF91CF9160
:102390001F910F91FF90EF90DF90CF90BF90AF9083
:1023A0009F908F907F906F905F904F903F902F9075
:1023B00008950C94960808950895EF92FF920F9354
:1023C0001F93CF93DF9389E194E00E944B06C0E016
:1023D000D0E088E2E82E81E0F82E0AE014E08C2FAD
:1023E0000E948B080E94B11DFF92EF929F938F93E2
:1023F0007F936F93DF93CF931F930F930E94E40615
:1024000021968DB79EB70A960FB6F8949EBF0FBE61
:102410008DBFC530D10519F7DF91CF911F910F9175
:10242000FF90EF90089508950895CF93DF93CDB76F
:10243000DEB72B970FB6F894DEBF0FBECDBF4F832C
:10244000588769877A878B878A859B85892B31F0A6
:102450005F3F11F080E003C04F3FE1F781E0811161
:1024600007C04F81588569857A858B850E94D41D68
:10247000DE01119686E0FD0111928A95E9F785E06B
:10248000FE01379601900D928A95E1F749815A81B4
:102490006B817C818D819E810E94081A2B960FB6DC
:1024A000F894DEBF0FBECDBFDF91CF910895CF93DB
:1024B000C82F882309F4E7C08238A1F40E943410A1
:1024C00081FDE1C089E30E94D91C0E945A1D2FEFB3
:1024D00081EE94E0215080409040E1F700C0000080
:1024E00089E315C08338C1F40E94341080FDCBC04D
:1024F00083E50E94D91C0E945A1D2FEF81EE94E0C3
:10250000215080409040E1F700C0000083E50E9428
:10251000FA1CCF910C945A1D8438A1F40E943410F7
:1025200082FDB1C087E40E94D91C0E945A1D2FEF82
:1025300081EE94E0215080409040E1F700C000001F
:1025400087E4E5CF8CEF8C0F813A48F48C2F0E9402
:102550003728811198C08C2F0E94D91CDACF80E2D5
:102560008C0F883048F4C77081E001C0880FCA958D
:10257000EAF70E941E1DCDCF8BE58C0F833078F4D7
:10258000C53A29F0C63A31F482E890E005C081E806
:1025900090E002C083E890E0CF910C94901088E521
:1025A0008C0F853108F06FC0C83A61F1C93A69F102
:1025B000CA3A71F1CB3A79F1CC3A81F1CD3A89F14D
:1025C000CE3A91F1CF3A99F1C13BA1F1C03BA9F1CB
:1025D000C23BB1F1C33BB9F1C43BC1F1C53BC9F149
:1025E000C63BD1F1C73BD9F1C83BE1F1C93BE9F1A9
:1025F000CA3BF1F1CB3BF9F1CC3B09F03FC08AE299
:1026000092E03EC082EE90E03BC089EE90E038C0A0
:102610008AEE90E035C085EB90E032C086EB90E02A
:102620002FC083EB90E02CC084EB90E029C087EBB7
:1026300090E026C08CEC90E023C08DEC90E020C0B0
:1026400083E891E01DC08AE891E01AC082E991E038
:1026500017C084E991E014C081E292E011C083E2E6
:1026600092E00EC084E292E00BC085E292E008C0E6
:1026700086E292E005C087E292E002C080E090E04E
:10268000CF910C94BE10CF910895882309F466C0B1
:102690008238A1F40E94341081FF60C089E30E9457
:1026A000D91C0E945A1D2FEF81EE94E021508040EA
:1026B0009040E1F700C0000089E315C08338B9F409
:1026C0000E94341080FF4AC083E50E94D91C0E94FA
:1026D0005A1D2FEF81EE94E0215080409040E1F7A9
:1026E00000C0000083E50E94FA1C0C945A1D843837
:1026F000A1F40E94341082FF31C087E40E94D91CEB
:102700000E945A1D2FEF81EE94E0215080409040AE
:10271000E1F700C0000087E4E6CF9CEF980F913A04
:1027200010F390E2980F983050F4877091E001C058
:10273000990F8A95EAF7892F0E94241DD6CF9BE531
:10274000980F933020F480E090E00C949010885A19
:10275000853120F480E090E00C94BE100895882329
:1027600021F00E941E1D0C945A1D0895882321F00B
:102770000E94241D0C945A1D0895CF92DF92EF926F
:10278000FF920F931F93CF93DF93CDB7DEB72897B8
:102790000FB6F894DEBF0FBECDBF8C0185E0F80107
:1027A000DE01119601900D928A95E1F7F8014081C2
:1027B0005181F28083819481258122952F70009729
:1027C00031F05F3F31F431E04F3F19F403C031E0A5
:1027D00001C030E030FDE2C2782F9D838C836F2DE5
:1027E0008D812F830E94551C9E8388870E94541CD4
:1027F0000E945C1B4E81E42FE295EF70F0E0E05AFE
:10280000FF4F2F8168850C94CB2A842F807F142F53
:102810001F70882311F01295107FFF2059F01123AB
:1028200009F471C2812F68870E94311D0E945A1DD0
:10283000688569C2862F0E944513112309F4AEC230
:10284000812F0E94371D28960FB6F894DEBF0FBE69
:10285000CDBFDF91CF911F910F91FF90EF90DF904F
:10286000CF900C945A1D842F807F942F9F70E92E57
:10287000803219F0E29480EFE822662319F061308B
:1028800001F129C0FF20A9F08E2D222349F121302A
:1028900039F528960FB6F894DEBF0FBECDBFDF9195
:1028A000CF911F910F91FF90EF90DF90CF900C94FC
:1028B000411D222319F0213009F470C20E94441DE9
:1028C0002CC0FF20E9F0263008F068C20E941B1DD2
:1028D0008E2129F022C0FF20F1F0211115C08E2D8C
:1028E00028960FB6F894DEBF0FBECDBFDF91CF9113
:1028F0001F910F91FF90EF90DF90CF900C94AF134A
:10290000253008F04BC209C0F801858180FFFBC16A
:102910008F708583E4CF21110AC28E2D78C1242FB8
:1029200026952695237030E02115310521F02130C0
:102930003105C9F033C2FF2021F0862F942F937008
:1029400002C080E090E028960FB6F894DEBF0FBE7C
:10295000CDBFDF91CF911F910F91FF90EF90DF904E
:10296000CF900C949010FF2021F0862F942F93701D
:1029700002C080E090E028960FB6F894DEBF0FBE4C
:10298000CDBFDF91CF911F910F91FF90EF90DF901E
:10299000CF900C94BE10862FFF2019F00E94672262
:1029A00002C00E94CF2228960FB6F894DEBF0FBE59
:1029B000CDBFDF91CF911F910F91FF90EF90DF90EE
:1029C000CF900C945423842F837009F076C0F110BB
:1029D000E5C1262F229526952770220F220F862FDC
:1029E0008F70C82ED12CE12CF12C022E04C0CC0CFF
:1029F000DD1CEE1CFF1C0A94D2F764FF10C06FE0D0
:102A000070E080E090E004C0660F771F881F991F78
:102A10002A95D2F7609570958095909503C060E0F7
:102A200070E0CB01242F269526952370422F50E08D
:102A300042305105D1F04330510559F16C297D29BF
:102A40008E299F294130510541F128960FB6F894FF
:102A5000DEBF0FBECDBFDF91CF911F910F91FF90D1
:102A6000EF90DF90CF900C94811B6C297D298E29EB
:102A70009F2928960FB6F894DEBF0FBECDBFDF9119
:102A8000CF911F910F91FF90EF90DF90CF900C941A
:102A90009B1B0E94811BC701B60128960FB6F894B4
:102AA000DEBF0FBECDBFDF91CF911F910F91FF9081
:102AB000EF90DF90CF900C94671BFF2019F0842FCC
:102AC000817001C08695882309F468C1262F22955C
:102AD00026952770220F220F862F8F70C82ED12C9B
:102AE000E12CF12C022E04C0CC0CDD1CEE1CFF1CD2
:102AF0000A94D2F764FF10C06FE070E080E090E0CD
:102B000004C0660F771F881F991F2A95D2F760951A
:102B100070958095909503C060E070E0CB01242F04
:102B2000269526952370422F50E042305105D1F072
:102B30004330510559F16C297D298E299F29413057
:102B4000510541F128960FB6F894DEBF0FBECDBFF8
:102B5000DF91CF911F910F91FF90EF90DF90CF9079
:102B60000C94301C6C297D298E299F2928960FB63C
:102B7000F894DEBF0FBECDBFDF91CF911F910F91B3
:102B8000FF90EF90DF90CF900C94421C0E94301C7D
:102B9000C701B60128960FB6F894DEBF0FBECDBFB1
:102BA000DF91CF911F910F91FF90EF90DF90CF9029
:102BB0000C941E1C603FD9F128F480E4860F80320B
:102BC00050F09CC0623F09F461C008F44BC0633F01
:102BD00009F470C093C0162F1071842F8F7168870D
:102BE000FF2059F00E94C91B6885862F112319F018
:102BF0008295807F75CE8F7073CE0E94E41B6885AE
:102C0000862F112319F08295807F01C08F7028963E
:102C10000FB6F894DEBF0FBECDBFDF91CF911F91ED
:102C20000F91FF90EF90DF90CF900C94B613FF20A0
:102C3000A9F0253008F0B2C0842F8F7128960FB606
:102C4000F894DEBF0FBECDBFDF91CF911F910F91E2
:102C5000FF90EF90DF90CF900C94031C263008F08B
:102C60009DC0EACFFF20A1F0842F8F7128960FB668
:102C7000F894DEBF0FBECDBFDF91CF911F910F91B2
:102C8000FF90EF90DF90CF900C94C91BFF2061F371
:102C9000842F8F7128960FB6F894DEBF0FBECDBF7C
:102CA000DF91CF911F910F91FF90EF90DF90CF9028
:102CB0000C94E41BFF2091F0842F8F7128960FB69F
:102CC000F894DEBF0FBECDBFDF91CF911F910F9162
:102CD000FF90EF90DF90CF900C94BA1B28960FB620
:102CE000F894DEBF0FBECDBFDF91CF911F910F9142
:102CF000FF90EF90DF90CF900C94B51BFF20A1F0D8
:102D0000222309F4B1CF862F28960FB6F894DEBFA0
:102D10000FBECDBFDF91CF911F910F91FF90EF902C
:102D2000DF90CF900C945712222309F4B1CF862F55
:102D300028960FB6F894DEBF0FBECDBFDF91CF91BE
:102D40001F910F91FF90EF90DF90CF900C9445135F
:102D50004F70C8010E94781F28960FB6F894DEBF06
:102D60000FBECDBFDF91CF911F910F91FF90EF90DC
:102D7000DF90CF900C94B51A4F70C80128960FB60B
:102D8000F894DEBF0FBECDBFDF91CF911F910F91A1
:102D9000FF90EF90DF90CF900C947B1F28960FB69A
:102DA000F894DEBF0FBECDBFDF91CF911F910F9181
:102DB000FF90EF90DF90CF9008950E943E1D0E94FB
:102DC0000D1D0E945A1D0E9482240E94542380E0FF
:102DD00090E00E94901080E090E00C94BE100E9461
:102DE0002E1D0C94DD161F93CF93DF9300D000D0DF
:102DF0001F92CDB7DEB749835A836B837C838D8363
:102E00008C819D81892B31F05F3F11F010E003C070
:102E10004F3FE1F711E01170C9F549815A816B818B
:102E20007C818D810E94551C482F292F22952F705F
:102E300030E02C3031054CF42A303105C4F42250F6
:102E400031092230310540F024C02C303105D1F059
:102E50002F303105B9F01DC0853A28F48430C0F414
:102E6000823028F415C080E2840F883088F0483E14
:102E700030F4403E68F44450413A58F409C0403FB1
:102E800041F406C093FB112710F903C010E001C004
:102E900011E0812F0F900F900F900F900F90DF9106
:102EA000CF911F910895CF93DF9300D000D01F9250
:102EB000CDB7DEB70F900F900F900F900F90DF916E
:102EC000CF910895CF93DF9300D000D000D0CDB73D
:102ED000DEB726960FB6F894DEBF0FBECDBFDF91EA
:102EE000CF9108951F93CF93DF93C091870116E090
:102EF00080918801C81799F0D0E01C9FF0011D9FB8
:102F0000F00D1124E757FE4F40815181628173819A
:102F1000848195810E9462172196C770E9CFDF9165
:102F2000CF911F9108954091B9015091BA016091DC
:102F3000BB017091BC018091BD019091BE010C94C8
:102F40006217CF938091BE0182958F7009F05FC0A8
:102F50008091BB01882309F45AC020918701A09178
:102F600088016091B9017091BA018091BC01909182
:102F7000BD0131E06F3F09F030E0B32FC6E02A1702
:102F800009F445C0009721F07F3F21F44B2F03C087
:102F900041E001C040E030E040FD35C0C29FF0019B
:102FA000C39FF00D1124E757FE4F418174132BC0CE
:102FB0004081641328C04281411125C0438154815E
:102FC0004817590710F441505109481B590B483C08
:102FD0005105C8F48091BE018F7080618093BE015D
:102FE00086E0829FF001839FF00D1124E257FE4F8F
:102FF00080818F708061808389EB91E00E94BD1396
:10300000CF910C9472172F5F3F4F2770B8CFCF919D
:103010000895BF92CF92DF92EF92FF920F931F938A
:10302000CF93DF93CDB7DEB761970FB6F894DEBFCD
:103030000FBECDBF8C0185E0F801DE011D96019029
:103040000D928A95E1F7D8014C9111965C911197F8
:103050001296CC9012971396ED90FC901497609175
:10306000B9017091BA012091BC013091BD012115C7
:10307000310531F07F3F31F481E06F3F19F403C037
:1030800081E001C080E0B82FB170BB2E80FD77C118
:10309000D090BB01DD2009F4FBC0E091BE01E21637
:1030A000F30638F0C701821B930B883C910548F06A
:1030B000A0C0209530952E0D3F1D283C310508F00D
:1030C00098C08E2F807F09F053C0751314C064130D
:1030D00012C0DC2CC1100FC0EF70E061E093BE01A4
:1030E0000E94931789EB91E00E94BD138091BE016D
:1030F000F80185837CC1E114F10431F05F3F31F4C4
:1031000081E04F3F19F403C081E001C080E080FD01
:1031100003C081E08C2501C080E0F82FF170DF2E24
:1031200080FF1CC0809187012091880136E08217C2
:1031300009F436C190E0389FF001399FF00D112459
:10314000E757FE4F6181561306C06081461303C0E6
:103150006281C61203C001968770E9CFDC2CCC20B7
:1031600009F445C18091BE0181608093BE0158C0C1
:10317000751308C0641306C0C11004C0D8011596A9
:10318000EC93B3C04D875E87CF867E2DF98AE88A9F
:103190006C2D89890E94F316882339F1DC2CCC2010
:1031A00021F12091BE01822F82958F7090E00297CD
:1031B0000CF463C08091B9019091BA0198878F8314
:1031C0001986FB86EA862C87CE01079654C07517B0
:1031D00049F14D875E87CF867E2DF98AE88A6C2D6E
:1031E00089890E94F31681112FC0C8010E94BD1366
:1031F000A9C08E2F807F59F77E2DF98AE88A6C2D21
:1032000089890E94531789EB91E00E94BD13E9EB75
:10321000F1E086E0DF011D928A95E9F70E9493179D
:10322000D12CE5C06413D5CFC110D3CFD8011596EA
:10323000EC93C8010E94BD13E9EBF1E086E0DF01E9
:103240001D928A95E9F7D3C0DC2CCC2071F2209135
:10325000BE01822F82958F7090E0029774F080916A
:10326000B9019091BA019A8389831B82FD82EC8215
:103270002E83CE0101960E94BD1386E0F801A9EBD2
:10328000B1E001900D928A95E1F70E94A11774C0F8
:10329000E216F30628F0F701E21BF30B9F0104C0CE
:1032A000209530952E0D3F1D283C310508F056C065
:1032B000DC2CCC2009F499CF75132CC064132AC0E0
:1032C0008091BE0180FD1DC0982F92959F70C9F01E
:1032D000D80115968C9315979F3039F09F5F929582
:1032E000907F8F70892B15968C93C8010E94BD1317
:1032F00086E0F801A9EBB1E001900D928A95E1F723
:103300003BC086E0F801A9EBB1E001900D928A95EF
:10331000E1F76DC04D875E87CF867E2DF98AE88AFA
:103320006C2D89890E94F316882379F086E0F801D4
:10333000A9EBB1E001900D928A95E1F70E94A117E7
:103340000E949317DD24D39452C08091BE01816006
:103350008093BE01C8010E94BD1349C07E2DF98A29
:10336000E88A6C2D89890E945317E9EBF1E086E029
:10337000DF011D928A95E9F70E94931738C0CC208F
:1033800009F433CF4D875E87CF867E2DF98AE88A90
:103390006C2D89890E94F316882309F426CFC6CFA5
:1033A0007E2DF98AE88A6C2D89890E94551C292F67
:1033B00022952F7030E0223031052CF49F7041F0BF
:1033C000811106C00CC0243031052CF49F7049F4E3
:1033D000805E883020F0C8010E94BD13BD2CDB2C1C
:1033E00006C0D80115969C91907F91F7F8CF8D2D4E
:1033F00061960FB6F894DEBF0FBECDBFDF91CF91BF
:103400001F910F91FF90EF90DF90CF90BF900895A4
:103410001F93CF93DF93CDB7DEB72C970FB6F894F9
:10342000DEBF0FBECDBF4F83588769877A878B87F2
:103430009C87CE0107960E9409188823C1F02F812E
:1034400038858A859B85892B31F03F3F11F080E0DC
:1034500003C02F3FE1F781E0811147C04F815885BC
:1034600069857A858B859C850E9462173EC086E0BF
:10347000FE013796DE01119601900D928A95E1F7D3
:10348000FF81E8854A855B854115510531F0EF3FA5
:1034900031F481E0FF3F19F403C081E001C080E016
:1034A00080FD23C02091880130E0C901019687701A
:1034B00099276091870170E086179707F1F1F983EA
:1034C000EA835D834C8396E0929FD001939FB00D79
:1034D0001124A757BE4FFE01319601900D929A9587
:1034E000E1F7809388010E94721716E080918701AE
:1034F00090918801891779F1189FC001112487578D
:103500009E4F0E940918882331F1E09187011E9F88
:10351000F0011124E757FE4F408151816281738190
:10352000848195810E9462178091870190E00196C5
:103530008770992780938701D9CF0E94EF16109248
:10354000880110928701E9EBF1E086E0DF011D922E
:103550008A95E9F7CACF2C960FB6F894DEBF0FBE56
:10356000CDBFDF91CF911F910895DF92EF92FF922F
:103570000F931F93CF93DF93FC01009709F48AC048
:10358000E12CF12CDD24D394EF0121968491853731
:1035900009F461C058F4843708F04EC0843008F054
:1035A0006AC08130D1F0823071F174C0883709F47B
:1035B0005DC050F4863709F455C0873709F06AC0FA
:1035C0008E2D0E942B1D54C09CE7980F903708F059
:1035D00061C08F770E94451350C08F010E5F1F4F4F
:1035E000FE01849190E2980F983050F48770FD2D81
:1035F00001C0FF0F8A95EAF78F2F0E94311D15C079
:103600000E94571214C08F010E5F1F4FFE0184915C
:1036100090E2980F983068F48770FD2D01C0FF0F7D
:103620008A95EAF78F2F0E94371D0E945A1DE801E4
:1036300024C00E944513FBCF9F012E5F3F4FFE0128
:10364000C491CC2369F08FE99FE00197F1F700C0A6
:103650000000C150F6CF9F012E5F3F4FFE01F49056
:10366000E9010BC00E941B1DE82E07C00E942E1D01
:103670000E945A1D02C00E9457129F2D992341F0AB
:10368000EFE9FFE03197F1F700C000009150F6CF6D
:10369000FE017ACFDF91CF911F910F91FF90EF90B4
:1036A000DF90089560931E0270931F0280932002A2
:1036B000909321020C94E41D08956093220270936C
:1036C000230280932402909325020C94E31D0F9310
:1036D0001F93009122021091230220912402309125
:1036E0002502602B712B822B932B60932202709307
:1036F000230280932402909325021F910F910C9432
:10370000E31D0F931F930091220210912302209139
:103710002402309125026023712382239323609336
:1037200022027093230280932402909325021F911A
:103730000F910C94E31D0F931F930091220210919F
:1037400023022091240230912502602771278227CD
:103750009327609322027093230280932402909314
:1037600025021F910F910C94E31D60E070E0CB01E6
:103770000C94521B41E050E060E070E004C0440F44
:10378000551F661F771F8A95D2F7CB01BA010C949B
:10379000521B41E050E060E070E004C0440F551F50
:1037A000661F771F8A95D2F780911E0290911F02A3
:1037B000A0912002B0912102482B592B6A2B7B2B20
:1037C000CB01BA010C94521B41E050E060E070E084
:1037D00004C0440F551F661F771F8A95D2F7409586
:1037E00050956095709580911E0290911F02A09156
:1037F0002002B0912102482359236A237B23CB0165
:10380000BA010C94521B41E050E060E070E004C04B
:10381000440F551F661F771F8A95D2F780911E02AD
:1038200090911F02A0912002B091210248275927B0
:103830006A277B27CB01BA010C94521B0F931F936D
:1038400000911E0210911F0220912002309121024E
:10385000602B712B822B932B1F910F910C94521B79
:103860000F931F9300911E0210911F0220912002BE
:103870003091210260237123822393231F910F91A2
:103880000C94521B0F931F9300911E0210911F0264
:1038900020912002309121026027712782279327EF
:1038A0001F910F910C94521B08959F92AF92BF925B
:1038B000CF92DF92EF92FF920F931F93CF93DF93FC
:1038C00000D000D01F92CDB7DEB76B837C838D8391
:1038D0005A018C819D81892B41F08FEFB81207C06E
:1038E00081E09FEF491303C003C081E001C080E085
:1038F00080FF03C080E090E04BC08B818823C1F142
:10390000C0902202D0902302E0902402F090250281
:1039100080911E0290911F02A0912002B09121027D
:10392000C82AD92AEA2AFB2A0FE110E0D701C601EA
:10393000002E04C0B695A795979587950A94D2F75F
:1039400080FD05C00150110988F7912C07C0902E09
:10395000B501802F0E94941F0197A1F393E1B99EB6
:10396000F0011124EA0DF11DE154FE4F908209C0CF
:1039700083E1B89EF0011124EA0DF11DE154FE4FE0
:103980009080A982BA8269817A81892D0E94941FD0
:103990000F900F900F900F900F90DF91CF911F918C
:1039A0000F91FF90EF90DF90CF90BF90AF909F90DE
:1039B000089540910C0150910D0120E030E09FEFFF
:1039C000FA01E20FF31F6281681799F09F3F19F423
:1039D000611101C0922F2F5F3F4F2630310581F7D3
:1039E0009F3F39F0FA01E90FF11D97FDFA958283A7
:1039F0000895089540910C0150910D0120E030E0B0
:103A0000FA01E20FF31F9281981301C012822F5F17
:103A10003F4F26303105A1F7089581E090E0E09115
:103A20000C01F0910D01E80FF91F1082019688300A
:103A30009105A9F708958091300208959091300280
:103A4000982B90933002089580959091300298239E
:103A500090933002089580933002089510923002BE
:103A6000089590912F02982B90932F02089580959E
:103A700090912F02982390932F02089510922F0275
:103A80000895809326020895109226020895409189
:103A90000C0150910D0120E030E080E0FA01E20FCE
:103AA000F31F918191118F5F2F5F3F4F27303105B9
:103AB000A9F70895E0910C01F0910D018091300279
:103AC0008083E0910C01F0910D01808190912F0293
:103AD000892B808390912602992361F0E0910C015B
:103AE000F0910D018081892B80830E94471D8111F7
:103AF0001092260280910C0190910D010C944010BF
:103B0000909335018093340108958295982F9C7C81
:103B100096959695837344E0849F90011124922B8F
:103B2000892F8A7A86959575990F892B08951F9309
:103B3000CF93DF931F92CDB7DEB799830E94851D87
:103B4000182F9981892F0E94851D212F30E0322F57
:103B50002227A901482BCA010F90DF91CF911F9115
:103B60000895CF92DF92EF92FF92CF93DF936B0194
:103B70007C01CB010E94971DEC01C7010E94971D9B
:103B80006C01CE01A0E0B0E077276627E12CF12C94
:103B90006C297D298E299F29DF91CF91FF90EF908D
:103BA000DF90CF9008950895CF93DF9300D000D099
:103BB0001F92CDB7DEB70F900F900F900F900F9020
:103BC000DF91CF910895089508950C94D911089527
:103BD00080914602843009F11092320220E488E19B
:103BE00090E00FB6F894A895809360000FBE2093E4
:103BF000600083B7817F846083BF83B7816083BFA8
:103C00007894889583B78E7F83BF88E10FB6F89448
:103C100080936000109260000FBE0895CF930E94C1
:103C200013120E9420070E941412C0E08C2F0E94E1
:103C30008B08672B682B692B29F4CF5FC530B1F750
:103C400080E001C081E0CF9108950E94DB110C94C7
:103C5000EF161F920F920FB60F9211248F939F931E
:103C6000AF93BF9380913202811113C080913302D0
:103C700090913402A0913502B09136024196A11D77
:103C8000B11D8093330290933402A0933502B09318
:103C90003602BF91AF919F918F910F900FBE0F9001
:103CA0001F90189582E084BD93E095BD9AEF97BD73
:103CB00080936E0008952FB7F8948091330290910D
:103CC0003402A0913502B09136022FBF08952FB76C
:103CD000F894609133027091340280913502909192
:103CE00036022FBF0895CF92DF92EF92FF920F938B
:103CF0001F932FB7F8944091330250913402609192
:103D00003502709136022FBF6A017B01EE24FF2439
:103D10008C0120E030E0C016D106E206F30610F474
:103D200041505109481B590BCA011F910F91FF9037
:103D3000EF90DF90CF9008951F920F920FB60F92E1
:103D400011248F939F93AF93BF93809133029091EF
:103D50003402A0913502B09136020196A11DB11D29
:103D60008093330290933402A0933502B0933602CD
:103D7000BF91AF919F918F910F900FBE0F901F90A9
:103D800018950E94580DF8942FEF87EA91E621507C
:103D900080409040E1F700C0000087E090EBDC013C
:103DA0008093500290935102A0935202B093530219
:103DB0002CE088E190E00FB6F894A895809360001D
:103DC0000FBE20936000FFCF8D3B60F4883A90F5E2
:103DD000853A28F5843008F5813009F086C081E005
:103DE00090E00895883E98F4803EB8F48F3B09F047
:103DF0007CC00E94EF162FEF80E792E021508040B8
:103E00009040E1F700C000000E94C11E6EC0803FDC
:103E100008F46BC090E09065089590E00895853AAD
:103E200021F0863A21F432E803C031E801C033E8DA
:103E300020E458C0883A51F1893A51F18A3A51F157
:103E40008B3A51F18C3A51F18D3A51F18E3A51F150
:103E50008F3A51F1813B51F1803B51F1823B51F15D
:103E6000833B51F1843B51F1853B51F1863B59F144
:103E7000873B59F1883B59F1893B59F18A3B59F10C
:103E80008B3B61F18C3B61F53AE226C032EE29C0F2
:103E900039EE27C03AEE25C035EB23C036EB21C002
:103EA00033EB1FC034EB1DC037EB1BC03CEC19C01B
:103EB0003DEC17C033E805C03AE803C032E901C061
:103EC00034E925E40FC031E207C033E205C034E233
:103ED00003C035E201C036E226E404C037E2FCCF7D
:103EE00030E024E4832F922F089580E090E008953D
:103EF00080E090E00895089593E1799FF001112406
:103F00009FE5899FE00DF11D1124E60FF11DEE5193
:103F1000FF4F84910895E82FF0E0EE0FFF1FE05A65
:103F2000F0408591949108950E947C1F803EA8F4F2
:103F3000803C00F5813309F45CC038F4893209F41F
:103F400052C08A3209F45BC05FC08933B1F0823855
:103F5000A1F0853309F441C057C0833E41F128F4F4
:103F6000803E99F0823EB9F04FC0863E31F1873EE7
:103F700071F14AC00E948B1F089590914F0290FDED
:103F800002C091FF41C080EE3FC080914F0280FF90
:103F9000FACF89E339C080914F0282FF0CC0809133
:103FA0004F0284FF02C080E02FC083EE2DC08091BD
:103FB0004F0282FFF4CF82EE27C080914F0283FF31
:103FC0000AC080914F0284FDEECF87EE1DC0809124
:103FD0004F0283FFF6CF86EE17C080914F0285FF18
:103FE00006C089E211C080914F0285FFFACF85E3B8
:103FF0000BC080914F0286FF06C08AE205C0809107
:104000004F0286FFFACF81E30E94E41E0895BF921B
:10401000CF92DF92EF92FF920F931F93CF93DF9394
:10402000EC01B12C8B2D0E948B086B017C0100E010
:1040300010E0B701A601002E04C07695679557954C
:1040400047950A94D2F740FF16C0602F7B2D80E081
:104050000E94941F8C179D0761F0292F207E392F15
:10406000307C11F0203A39F4282F30E02C173D072E
:1040700011F481E00AC00F5F1F4F03311105C9F62B
:10408000B39485E0B812CECF80E0DF91CF911F913D
:104090000F91FF90EF90DF90CF90BF900895CF9356
:1040A000DF93EC018CE290E00E940720882329F046
:1040B000CE01DF91CF910C94072080E0DF91CF916A
:1040C0000895CF930E94C021811102C00E94A621B1
:1040D00086E494E00E944B06C5E6C15049F00E9478
:1040E00020078FE39CE90197F1F700C00000F5CFAE
:1040F0008FE394E00E944B0689E290E00E944F20FB
:10410000811122C18AE290E00E944F2081110E9419
:10411000A62185E090E00E944F2081110E94C11EDF
:104120000E94E71D0E94CB218093310287E090E03E
:104130000E944F208823B1F18BE190E00E944F2034
:10414000882351F09091310291FB882780F921E07A
:10415000822780FB91F924C08EE090E00E944F20DE
:10416000882351F09091310292FB882780F921E059
:10417000822780FB92F914C080E190E00E944F20DA
:1041800090913102882341F093FB882780F921E048
:10419000822780FB93F904C0892F809580FB90F9DA
:1041A00090933102809131020E94CF210E94DD2143
:1041B00080934F0280EE90E00E944F20882341F0D0
:1041C00080914F02982F909590FB80F980934F0239
:1041D00089E390E00E944F20882359F090914F028C
:1041E00091FB882780F921E0822780FB91F9909349
:1041F0004F0282EE90E00E944F20882359F0909168
:104200004F0292FB882780F921E0822780FB92F9F8
:1042100090934F0286EE90E00E944F20882359F041
:1042200090914F0293FB882780F921E0822780FB41
:1042300093F990934F0283EE90E00E944F208823E1
:1042400059F090914F0294FB882780F921E0822752
:1042500080FB94F990934F0285E390E00E944F20F9
:10426000882359F090914F0295FB882780F921E02F
:10427000822780FB95F990934F0281E390E00E94A2
:104280004F20882359F090914F0296FB882780F9A0
:1042900021E0822780FB96F990934F0281E190E024
:1042A0000E944F20882359F090914F0297FB882756
:1042B00080F921E0822780FB97F990934F0280914B
:1042C0004F020E94E12187E290E00E944F20C82F18
:1042D0008EE190E00E944F208111C2608FE190E05A
:1042E0000E944F208111C46080E290E00E944F2024
:1042F0008111C86081E290E00E944F208111C0616D
:1043000082E290E00E944F208111C06283E290E03F
:104310000E944F208111C06484E290E00E944F20EF
:10432000882311F0C06802C0CC2329F08C2F0E9492
:10433000D8216C2F03C00E94D421682F70E080E048
:1043400090E0CF910C945D1BCF9108956DEE7EEFC0
:1043500080E090E00E94012B60E082E090E00E940B
:10436000F32A60E083E090E00E94F32A60E084E0BA
:1043700090E00E94F32A60E085E090E00C94F32A3C
:1043800080E090E00E94ED2A21E08D3E9E4F09F0F2
:1043900020E0822F089582E090E00C94E52A682FB7
:1043A00082E090E00C94F32A83E090E00C94E52AFC
:1043B000682F83E090E00C94F32A84E090E00C9462
:1043C000E52A682F84E090E00C94F32A809139026A
:1043D00080FF0BC06091110185E0689FB00111243E
:1043E00075956795759567952AC081FF09C060919D
:1043F000110185E0689FB0011124759567951FC074
:1044000082FF07C06091110185E0689FB00111240F
:1044100016C040913A024423C9F06091100146173A
:1044200088F72091110185E0289F90011124429F77
:10443000C001439F900D112470E00E94B72A60389C
:10444000710540F46115710539F002C065E070E056
:10445000862F08958FE7089581E0089580913902AD
:1044600080FF08C060910F0170E0759567957595A4
:10447000679521C081FF06C060910F0170E07595BE
:10448000679519C082FF04C060910F0170E010C0F1
:1044900080913A028823C1F060910E018617A0F73F
:1044A00090910F01989FC001112470E00E94B72ADB
:1044B0006038710528F46115710521F0862F089583
:1044C0008FE7089581E0089561E070E0F4CF803FC8
:1044D00021F40E94E621819504C0813F29F40E94C5
:1044E000E62180933D020895823F21F40E94E62157
:1044F000819504C0833F29F40E94E62180933C0209
:104500000895893F19F40E942E2205C08A3F31F494
:104510000E942E22819580933E0208958B3F21F4C4
:104520000E942E22819504C08C3F29F40E942E22E5
:1045300080933F020895843F21F480913B02816083
:1045400017C0853F21F480913B02826011C0863FF5
:1045500021F480913B0284600BC0873F21F480915D
:104560003B02886005C0883F31F480913B02806146
:1045700080933B0208958D3F21F480913902816040
:104580000BC08E3F21F480913902826005C08F3FBD
:1045900029F4809139028460809339020895803F24
:1045A00039F480913D0287FF6CC010923D0269C0D2
:1045B000813F29F480913D021816BCF362C09091AE
:1045C0003C02823F29F497FF5CC010923C0259C024
:1045D000833F19F41916CCF354C0893F41F48091FC
:1045E0003E0218160CF04DC010923E024AC08A3F9F
:1045F00029F480913E0287FF44C0F6CF8B3F39F407
:1046000080913F0287FF3DC010923F023AC08C3F2D
:1046100029F480913F021816BCF333C0843F21F483
:1046200080913B028E7F17C0853F21F480913B0231
:104630008D7F11C0863F21F480913B028B7F0BC0A0
:10464000873F21F480913B02877F05C0883F31F48A
:1046500080913B028F7E80933B0213C08D3F21F4FB
:10466000809139028E7F0BC08E3F21F480913902F8
:104670008D7F05C08F3F29F4809139028B7F809315
:10468000390280913C0281110EC080913D0281115E
:104690000AC080913E02811106C080913F028111C3
:1046A00002C010923A0208958091310283FF7EC0C9
:1046B00082E894E00E944B0680913B021F928F9308
:1046C0008DE794E09F938F930E94E4068BE794E03C
:1046D0000E944B0620913C02822F992787FD9095DE
:1046E0009F932F9388E794E09F938F930E94E40613
:1046F00086E794E00E944B0620913D02822F992785
:1047000087FD90959F932F9383E794E09F938F93DA
:104710000E94E40681E794E00E944B0620913E024D
:10472000822F992787FD90959F932F938EE694E093
:104730009F938F930E94E4068CE694E00E944B06C0
:1047400020913F02822F992787FD90959F932F9369
:1047500089E694E09F938F930E94E40686E694E0B6
:104760000E944B0680913A021F928F9383E694E059
:104770009F938F930E94E40681E694E00E944B068B
:10478000809139021F928F938EE594E09F938F93CF
:104790000E94E4068BE594E00E944B068DB79EB71D
:1047A0004C960FB6F8949EBF0FBE8DBF8BE392E080
:1047B0000E9485100E945B1E9093380280933702FE
:1047C00008951F93CF93DF93809137029091380221
:1047D0000E94731E40913A02442321F0209112015D
:1047E00030E006C0209113015AE0259F900111246A
:1047F0008217930708F482C080913C0210913D0219
:10480000D0913E02C0913F02811107C0111105C035
:10481000D11103C0CC2309F471C04F3F19F04F5F91
:1048200040933A02181624F40E94E62180933C0239
:1048300080913C0287FF05C00E94E621819580930C
:104840003C02111624F40E94E62180933D028091DF
:104850003D0287FF05C00E94E621819580933D02BD
:1048600060913C02662339F110913D02112319F148
:10487000772767FD7095872F972F0E94BC2923E328
:1048800033E343E35FE30E94202A0E948929609377
:104890003C02612F772767FD7095872F972F0E9425
:1048A000BC2923E333E343E35FE30E94202A0E9411
:1048B000892960933D021D1624F40E942E228093C4
:1048C0003E0280913E0287FF05C00E942E22819504
:1048D00080933E021C1624F40E942E2280933F02F5
:1048E00080913F0287FF05C00E942E228195809310
:1048F0003F02DF91CF911F910C945423DF91CF9110
:104900001F910895EBE3F2E085E0DF011D928A95A7
:10491000E9F710923A0210923902089585EA96E07A
:104920000E944B061F9281E08F931F9285E08F9328
:1049300087E596E09F938F930E94E4060F900F9077
:104940000F900F900F900F9008958330E9F128F4A5
:10495000813061F0823009F10895853009F462C038
:1049600008F449C0863009F474C0089520911301F9
:10497000862F90E0820F911D8F3F910520F4620FEA
:104980006093130103C08FEF809313018091130193
:104990001F928F9380E995E072C020911201862FBB
:1049A00090E0820F911D8F3F910520F4620F60937C
:1049B000120103C08FEF80931201809112011F92A8
:1049C0008F938EE795E05BC020911101862F90E0D8
:1049D000820F911D8F3F910520F4620F60931101AA
:1049E00003C08FEF80931101809111011F928F936B
:1049F0008BE695E044C020911001862F90E0820F55
:104A0000911D8F3F910520F4620F6093100103C048
:104A10008FEF80931001809110011F928F9386E594
:104A200095E02DC020910F01862F90E0820F911DFF
:104A30008F3F910520F4620F60930F0103C08FEF49
:104A400080930F0180910F011F928F938DE395E06A
:104A500016C020910E01862F90E0820F911D8F3F8E
:104A6000910520F4620F60930E0103C08FEF8093D5
:104A70000E0180910E011F928F9382E295E09F9329
:104A80008F930E94E4060F900F900F900F9008955F
:104A9000833081F128F4813059F08230D1F00895CB
:104AA000853009F449C0B8F1863009F456C008953C
:104AB00080911301681720F4861B8093130102C0B4
:104AC00010921301809113011F928F9383E195E05F
:104AD00054C080911201681720F4861B8093120144
:104AE00002C010921201809112011F928F9381E0F7
:104AF00095E043C080911101681720F4861B8093D4
:104B0000110102C010921101809111011F928F9327
:104B10008EEE94E032C080911001681720F4861B5D
:104B20008093100102C010921001809110011F9219
:104B30008F9389ED94E021C080910F01681720F4D4
:104B4000861B80930F0102C010920F0180910F010C
:104B50001F928F9380EC94E010C080910E01681733
:104B600020F4861B80930E0102C010920E018091EA
:104B70000E011F928F9385EA94E09F938F930E947A
:104B8000E4060F900F900F900F900895CF93C82FC9
:104B90001F928F932AEA37E03F932F930E94E406F7
:104BA00061E070E080E090E004C0660F771F881F2E
:104BB000991FCA95D2F70E945D1B0F900F900F901E
:104BC0000F90CF910C94EF16CF938732B0F58E31C2
:104BD00008F03DC28E3009F4BDC100F5873009F4FC
:104BE0008DC1A8F4863009F036C280913102817FF0
:104BF0008E7F809331028FEA97E00E944B0682EE0F
:104C00009BE00E944B0681E08093410275C1883091
:104C100009F43FC08B3009F46BC11DC2863109F421
:104C2000DDC120F4803109F4A8C115C2893109F42D
:104C3000BEC18B3109F47BC10EC2883309F458C15F
:104C400050F4893209F401C2853309F4FEC1873278
:104C500009F001C2FAC1833409F4F7C128F48A3398
:104C600008F4F9C18953F4C1883409F0F4C10E94F1
:104C7000EF1681ED9BE00E944B069FEF23ED80E352
:104C8000915020408040E1F700C000000E94C11E0A
:104C900033C186EE9BE00E944B0686EA99E00E94B3
:104CA0004B060E94D4211F928F9383EA99E09F9331
:104CB0008F930E94E40681EA99E00E944B060E94CD
:104CC000CB21C82F8EE899E00E944B061F92CF930C
:104CD00029E839E03F932F930E94E40687E899E0A2
:104CE0000E944B068DE799E00E944B068C2F817045
:104CF0001F928F932AE739E03F932F930E94E40697
:104D000088E799E00E944B068EE699E00E944B06E8
:104D1000C1FB882780F91F928F932BE639E03F93E0
:104D20002F930E94E40689E699E00E944B068DE5E8
:104D300099E00E944B06C2FB882780F91F928F934F
:104D40002AE539E03F932F930E94E40688E599E035
:104D50000E944B068FE499E00E944B06C3FBCC27D0
:104D6000C0F91F92CF938CE499E09F938F930E9498
:104D7000E4068AE499E00E944B060E94DD21C82FD8
:104D800086E399E00E944B061F92CF9321E339E01E
:104D90003F932F930E94E4068FE299E00E944B0616
:104DA00086E199E00E944B068C2F81701F928F93B1
:104DB00023E139E03F932F930E94E4068DB79EB71D
:104DC00080960FB6F8949EBF0FBE8DBF81E199E02B
:104DD0000E944B068AEF98E00E944B06C1FB882791
:104DE00080F91F928F9327EF38E03F932F930E9413
:104DF000E40685EF98E00E944B0683EE98E00E945F
:104E00004B06C2FB882780F91F928F9320EE38E073
:104E10003F932F930E94E4068EED98E00E944B068C
:104E20008CEC98E00E944B06C3FB882780F91F9208
:104E30008F9329EC38E03F932F930E94E40687EC90
:104E400098E00E944B068DEB98E00E944B06C4FB55
:104E5000882780F91F928F932AEB38E03F932F9396
:104E60000E94E40688EB98E00E944B0686EA98E0F0
:104E70000E944B06C5FB882780F91F928F9323EA77
:104E800038E03F932F930E94E40681EA98E00E9465
:104E90004B0685E898E00E944B06C6FB882780F900
:104EA0001F928F9322E838E03F932F930E94E406ED
:104EB00080E898E00E944B0688E798E00E944B0645
:104EC000C7FBCC27C0F91F92CF9385E798E09F934B
:104ED0008F930E94E40683E798E00E944B068DB70B
:104EE0009EB74C960FB6F8949EBF0FBE8DBF04C000
:104EF00086ED97E00E944B06C1E0B2C0809131027E
:104F0000C82FC17080FF09C084EC9BE00E944B0653
:104F100080913102817F8E7F44C088EB9BE00E94AC
:104F20004B0680913102816080933102E5CF809100
:104F3000310281FBCC27C0F991E0C927C0FB81F980
:104F400080933102CC2319F08BEA9BE025C08DE9D8
:104F50009BE0D0CF8091310282FBCC27C0F991E059
:104F6000C927C0FB82F980933102CC2319F08EE867
:104F70009BE012C08EE79BE0BDCF8091310283FBA6
:104F8000CC27C0F991E0C927C0FB83F98093310297
:104F9000CC2351F082E79BE00E944B0680913102C6
:104FA0008160809331025CC085E69BE0A3CF86E5FB
:104FB0009BE00E944B068FE19BE00E944B068CEB2E
:104FC0009AE00E944B068FE89AE00E944B068FE41D
:104FD0009AE00E944B0681E29AE08CCF83E19AE04E
:104FE0000E944B060E9434101F928F9389EF99E024
:104FF0009F938F930E94E40680910B011F928F93E1
:1050000082EE99E09F938F930E94E40680916B015A
:105010001F928F938FEC99E09F938F930E94E406E9
:105020000E94671E9F938F937F936F9388EB99E005
:105030009F938F930E94E4068DB79EB742960FB65A
:10504000F8949EBF0FBE8DBF57CF80E001C08D5139
:105050000E94C62551CF86EB99E00E944B06C0E026
:105060008C2FCF91089580E0089580E00895CF932C
:10507000C82F80914102813071F020F0823009F414
:1050800048C03FC1A0910C01B0910D018C918232BA
:1050900009F039C107C0A0910C01B0910D018C91AC
:1050A000823249F48C2F0E94332881112FC08C2F1B
:1050B0000E94E4252CC08C2F0E943528811126C027
:1050C000C431E1F070F4CB3081F0C031D1F40E94F2
:1050D0008E2482EA97E00E944B0682E08093410290
:1050E00015C0C93259F0C83361F48FEA97E00E94C5
:1050F0004B0686EA97E00E944B0608C010924102D8
:1051000004C180EA97E00E944B06FFC081E08170F5
:10511000FEC0C43228F5CE3108F0C1C0CB30A1F1B9
:10512000D0F4C73009F0D3C08EE18093130182E33D
:10513000809312018AE08093110184E18093100131
:1051400088E080930F0188E280930E0186E496E068
:105150000E944B06BFC0C33149F1C431C1F0B7C092
:10516000CB3409F4A9C028F4C93289F0C83361F0FE
:10517000AEC0C13509F49EC0C23509F499C0CE3421
:1051800009F0A5C06AE09EC00E948E24A3C0809151
:105190004002882319F0109240029CC083E596E0FB
:1051A0000E944B0681E080934102B1C08DE296E0FF
:1051B0000E944B068BE196E00E944B068091130102
:1051C0001F928F9388E196E09F938F930E94E4064D
:1051D00086E196E00E944B0684E096E00E944B0632
:1051E000809112011F928F9381E096E09F938F939D
:1051F0000E94E4068FEF95E00E944B0680EF95E059
:105200000E944B06809111011F928F938DEE95E0C5
:105210009F938F930E94E4068BEE95E00E944B06CD
:105220008AED95E00E944B06809110011F928F93AA
:1052300087ED95E09F938F930E94E40685ED95E0BE
:105240000E944B0680EC95E00E944B0680910F0176
:105250001F928F938DEB95E09F938F930E94E406AE
:105260008BEB95E00E944B0684EA95E00E944B068A
:1052700080910E011F928F9381EA95E09F938F9307
:105280000E94E4068FE995E00E944B068DB79EB719
:1052900048960FB6F8949EBF0FBE8DBF1BC0CE516F
:1052A000EC2FF0E0E75DFE4F80818093400212C05A
:1052B00061E003C061E006C06AE0809140020E94A4
:1052C000A52408C0809140020E94482503C084E4C0
:1052D00096E013C080914002882369F01F928F935B
:1052E0008EE396E09F938F930E94E4060F900F90B9
:1052F0000F900F9004C08BE396E00E944B0681E074
:1053000006C01092410280E002C080E000CFCF9141
:10531000089504D06894B1118DC0089570D088F0BC
:105320009F5790F0B92F9927B751A0F0D1F0660F91
:10533000771F881F991F1AF0BA95C9F712C0B130AC
:1053400081F077D0B1E0089574C0672F782F882757
:10535000B85F39F0B93FCCF3869577956795B395EB
:10536000D9F73EF490958095709561957F4F8F4F5A
:105370009F4F0895E89409C097FB3EF4909580955F
:10538000709561957F4F8F4F9F4F9923A9F0F92F0B
:1053900096E9BB279395F695879577956795B79589
:1053A000F111F8CFFAF4BB0F11F460FF1BC06F5F6F
:1053B0007F4F8F4F9F4F16C0882311F096E911C081
:1053C000772321F09EE8872F762F05C0662371F0A2
:1053D00096E8862F70E060E02AF09A95660F771FB6
:1053E000881FDAF7880F9695879597F9089557FDE6
:1053F0009058440F551F59F05F3F71F04795880F43
:1054000097FB991F61F09F3F79F0879508951216D9
:1054100013061406551FF2CF4695F1DF08C0161685
:1054200017061806991FF1CF869571056105089436
:105430000895E894BB2766277727CB0197F908954D
:105440000BD078C069D028F06ED018F0952309F001
:105450005AC05FC01124EECFCADFA0F3959FD1F3ED
:10546000950F50E0551F629FF001729FBB27F00D12
:10547000B11D639FAA27F00DB11DAA1F649F662767
:10548000B00DA11D661F829F2227B00DA11D621FB6
:10549000739FB00DA11D621F839FA00D611D221F70
:1054A000749F3327A00D611D231F849F600D211D54
:1054B000822F762F6A2F11249F5750408AF0E1F0F7
:1054C00088234AF0EE0FFF1FBB1F661F771F881F40
:1054D00091505040A9F79E3F510570F014C0AACFDB
:1054E0005F3FECF3983EDCF3869577956795B7952B
:1054F000F795E7959F5FC1F7FE2B880F911D969555
:10550000879597F9089597F99F6780E870E060E0C4
:1055100008959FEF80EC089500240A94161617064C
:1055200018060906089500240A9412161306140694
:1055300005060895092E0394000C11F4882352F0F7
:10554000BB0F40F4BF2B11F460FF04C06F5F7F4FAF
:105550008F4F9F4F0895991B79E004C0991F9617AC
:1055600008F0961B881F7A95C9F78095089597FBD8
:10557000072E16F4009407D077FD09D00E94D12A97
:1055800007FC05D03EF4909581959F4F0895709546
:1055900061957F4F0895EE0FFF1F0590F491E02D68
:1055A0000994AA1BBB1B51E107C0AA1FBB1FA6176A
:1055B000B70710F0A61BB70B881F991F5A95A9F7BC
:1055C00080959095BC01CD010895F999FECF92BDCB
:1055D00081BDF89A992780B50895A8E1B0E042E02E
:1055E00050E00C94082B262FF999FECF1FBA92BDDC
:1055F00081BD20BD0FB6F894FA9AF99A0FBE0196B4
:1056000008950E94F32A272F0C94F42ADC01CB0181
:10561000FC01F999FECF06C0F2BDE1BDF89A3196C2
:1056200000B40D9241505040B8F70895F894FFCF60
:10563000059D088E096B093709040901270228080E
:10564000140A321E404D36228E0341030B03E90239
:1056500075028E02A702C0020001020304050607BC
:045660000809000035
:00000001FF
